{
  "_format": "hh-sol-artifact-1",
  "contractName": "ETHTornado",
  "sourceName": "contracts/ETHTornado.sol",
  "abi": [
    {
      "inputs": [
        {
          "internalType": "contract IVerifier",
          "name": "_verifier",
          "type": "address"
        },
        {
          "internalType": "uint256",
          "name": "_denomination",
          "type": "uint256"
        },
        {
          "internalType": "uint32",
          "name": "_merkleTreeHeight",
          "type": "uint32"
        },
        {
          "internalType": "address",
          "name": "_hasher",
          "type": "address"
        }
      ],
      "stateMutability": "nonpayable",
      "type": "constructor"
    },
    {
      "anonymous": false,
      "inputs": [
        {
          "indexed": true,
          "internalType": "bytes32",
          "name": "commitment",
          "type": "bytes32"
        },
        {
          "indexed": false,
          "internalType": "uint32",
          "name": "leafIndex",
          "type": "uint32"
        },
        {
          "indexed": false,
          "internalType": "uint256",
          "name": "timestamp",
          "type": "uint256"
        }
      ],
      "name": "Deposit",
      "type": "event"
    },
    {
      "anonymous": false,
      "inputs": [
        {
          "indexed": false,
          "internalType": "address",
          "name": "to",
          "type": "address"
        },
        {
          "indexed": false,
          "internalType": "bytes32",
          "name": "nullifierHash",
          "type": "bytes32"
        },
        {
          "indexed": true,
          "internalType": "address",
          "name": "relayer",
          "type": "address"
        },
        {
          "indexed": false,
          "internalType": "uint256",
          "name": "fee",
          "type": "uint256"
        }
      ],
      "name": "Withdrawal",
      "type": "event"
    },
    {
      "inputs": [],
      "name": "FIELD_SIZE",
      "outputs": [
        {
          "internalType": "uint256",
          "name": "",
          "type": "uint256"
        }
      ],
      "stateMutability": "view",
      "type": "function"
    },
    {
      "inputs": [],
      "name": "ROOT_HISTORY_SIZE",
      "outputs": [
        {
          "internalType": "uint32",
          "name": "",
          "type": "uint32"
        }
      ],
      "stateMutability": "view",
      "type": "function"
    },
    {
      "inputs": [],
      "name": "ZERO_VALUE",
      "outputs": [
        {
          "internalType": "uint256",
          "name": "",
          "type": "uint256"
        }
      ],
      "stateMutability": "view",
      "type": "function"
    },
    {
      "inputs": [],
      "name": "currentRootIndex",
      "outputs": [
        {
          "internalType": "uint32",
          "name": "",
          "type": "uint32"
        }
      ],
      "stateMutability": "view",
      "type": "function"
    },
    {
      "inputs": [],
      "name": "denomination",
      "outputs": [
        {
          "internalType": "uint256",
          "name": "",
          "type": "uint256"
        }
      ],
      "stateMutability": "view",
      "type": "function"
    },
    {
      "inputs": [
        {
          "internalType": "bytes32",
          "name": "_commitment",
          "type": "bytes32"
        }
      ],
      "name": "deposit",
      "outputs": [],
      "stateMutability": "payable",
      "type": "function"
    },
    {
      "inputs": [
        {
          "internalType": "uint256",
          "name": "",
          "type": "uint256"
        }
      ],
      "name": "filledSubtrees",
      "outputs": [
        {
          "internalType": "bytes32",
          "name": "",
          "type": "bytes32"
        }
      ],
      "stateMutability": "view",
      "type": "function"
    },
    {
      "inputs": [],
      "name": "getLastRoot",
      "outputs": [
        {
          "internalType": "bytes32",
          "name": "",
          "type": "bytes32"
        }
      ],
      "stateMutability": "view",
      "type": "function"
    },
    {
      "inputs": [
        {
          "internalType": "bytes32",
          "name": "_left",
          "type": "bytes32"
        },
        {
          "internalType": "bytes32",
          "name": "_right",
          "type": "bytes32"
        }
      ],
      "name": "hashLeftRight",
      "outputs": [
        {
          "internalType": "bytes32",
          "name": "",
          "type": "bytes32"
        }
      ],
      "stateMutability": "view",
      "type": "function"
    },
    {
      "inputs": [],
      "name": "hasher",
      "outputs": [
        {
          "internalType": "contract Hasher",
          "name": "",
          "type": "address"
        }
      ],
      "stateMutability": "view",
      "type": "function"
    },
    {
      "inputs": [
        {
          "internalType": "bytes32",
          "name": "_root",
          "type": "bytes32"
        }
      ],
      "name": "isKnownRoot",
      "outputs": [
        {
          "internalType": "bool",
          "name": "",
          "type": "bool"
        }
      ],
      "stateMutability": "view",
      "type": "function"
    },
    {
      "inputs": [
        {
          "internalType": "bytes32",
          "name": "_nullifierHash",
          "type": "bytes32"
        }
      ],
      "name": "isSpent",
      "outputs": [
        {
          "internalType": "bool",
          "name": "",
          "type": "bool"
        }
      ],
      "stateMutability": "view",
      "type": "function"
    },
    {
      "inputs": [
        {
          "internalType": "bytes32[]",
          "name": "_nullifierHashes",
          "type": "bytes32[]"
        }
      ],
      "name": "isSpentArray",
      "outputs": [
        {
          "internalType": "bool[]",
          "name": "spent",
          "type": "bool[]"
        }
      ],
      "stateMutability": "view",
      "type": "function"
    },
    {
      "inputs": [],
      "name": "levels",
      "outputs": [
        {
          "internalType": "uint32",
          "name": "",
          "type": "uint32"
        }
      ],
      "stateMutability": "view",
      "type": "function"
    },
    {
      "inputs": [],
      "name": "nextIndex",
      "outputs": [
        {
          "internalType": "uint32",
          "name": "",
          "type": "uint32"
        }
      ],
      "stateMutability": "view",
      "type": "function"
    },
    {
      "inputs": [
        {
          "internalType": "bytes32",
          "name": "",
          "type": "bytes32"
        }
      ],
      "name": "nullifierHashes",
      "outputs": [
        {
          "internalType": "bool",
          "name": "",
          "type": "bool"
        }
      ],
      "stateMutability": "view",
      "type": "function"
    },
    {
      "inputs": [
        {
          "internalType": "uint256",
          "name": "",
          "type": "uint256"
        }
      ],
      "name": "roots",
      "outputs": [
        {
          "internalType": "bytes32",
          "name": "",
          "type": "bytes32"
        }
      ],
      "stateMutability": "view",
      "type": "function"
    },
    {
      "inputs": [],
      "name": "verifier",
      "outputs": [
        {
          "internalType": "contract IVerifier",
          "name": "",
          "type": "address"
        }
      ],
      "stateMutability": "view",
      "type": "function"
    },
    {
      "inputs": [
        {
          "components": [
            {
              "internalType": "uint256[2]",
              "name": "a",
              "type": "uint256[2]"
            },
            {
              "internalType": "uint256[2][2]",
              "name": "b",
              "type": "uint256[2][2]"
            },
            {
              "internalType": "uint256[2]",
              "name": "c",
              "type": "uint256[2]"
            }
          ],
          "internalType": "struct Proof",
          "name": "_proof",
          "type": "tuple"
        },
        {
          "internalType": "bytes32",
          "name": "_root",
          "type": "bytes32"
        },
        {
          "internalType": "bytes32",
          "name": "_nullifierHash",
          "type": "bytes32"
        },
        {
          "internalType": "address payable",
          "name": "_recipient",
          "type": "address"
        },
        {
          "internalType": "address payable",
          "name": "_relayer",
          "type": "address"
        },
        {
          "internalType": "uint256",
          "name": "_fee",
          "type": "uint256"
        }
      ],
      "name": "withdraw",
      "outputs": [],
      "stateMutability": "payable",
      "type": "function"
    },
    {
      "inputs": [
        {
          "internalType": "uint256",
          "name": "",
          "type": "uint256"
        }
      ],
      "name": "zeros",
      "outputs": [
        {
          "internalType": "bytes32",
          "name": "",
          "type": "bytes32"
        }
      ],
      "stateMutability": "view",
      "type": "function"
    }
  ],
  "bytecode": "0x60e06040526000600360006101000a81548163ffffffff021916908363ffffffff1602179055506000600360046101000a81548163ffffffff021916908363ffffffff1602179055503480156200005557600080fd5b5060405162002ba938038062002ba983398181016040528101906200007b9190620005ab565b83838383818160008263ffffffff1611620000cd576040517f08c379a0000000000000000000000000000000000000000000000000000000008152600401620000c4906200090a565b60405180910390fd5b60208263ffffffff161062000119576040517f08c379a000000000000000000000000000000000000000000000000000000000815260040162000110906200092c565b60405180910390fd5b806000806101000a81548173ffffffffffffffffffffffffffffffffffffffff021916908373ffffffffffffffffffffffffffffffffffffffff1602179055508163ffffffff1660808163ffffffff1660e01b8152505060007f2fe54c60d3acabf3343a35b6eba15db4821b340f76e741e2249685ed4899af6c60001b9050600281908060018154018082558091505060019003906000526020600020016000909190919091505560018190806001815401808255809150506001900390600052602060002001600090919091909150556000600190505b8363ffffffff168163ffffffff1610156200027a576200021882836200033f60201b60201c565b9150600282908060018154018082558091505060019003906000526020600020016000909190919091505560018290806001815401808255809150506001900390600052602060002001600090919091909150558080600101915050620001f1565b506200028d81826200033f60201b60201c565b60046000606481106200029c57fe5b0181905550505050600160688190555060008311620002f2576040517f08c379a0000000000000000000000000000000000000000000000000000000008152600401620002e990620008a4565b60405180910390fd5b8373ffffffffffffffffffffffffffffffffffffffff1660c08173ffffffffffffffffffffffffffffffffffffffff1660601b815250508260a08181525050505050505050505062000a7a565b60007f30644e72e131a029b85045b68181585d2833e84879b9709143e1f593f00000018360001c10620003a9576040517f08c379a0000000000000000000000000000000000000000000000000000000008152600401620003a090620008c6565b60405180910390fd5b7f30644e72e131a029b85045b68181585d2833e84879b9709143e1f593f00000018260001c1062000411576040517f08c379a00000000000000000000000000000000000000000000000000000000081526004016200040890620008e8565b60405180910390fd5b6200041b620004ea565b604051806040016040528085815260200184815250905060008054906101000a900473ffffffffffffffffffffffffffffffffffffffff1673ffffffffffffffffffffffffffffffffffffffff1663299e5660826040518263ffffffff1660e01b81526004016200048d919062000887565b60206040518083038186803b158015620004a657600080fd5b505afa158015620004bb573d6000803e3d6000fd5b505050506040513d601f19601f82011682018060405250810190620004e191906200057f565b91505092915050565b6040518060400160405280600290602082028036833780820191505090505090565b6000815190506200051d81620009f8565b92915050565b600081519050620005348162000a12565b92915050565b6000815190506200054b8162000a2c565b92915050565b600081519050620005628162000a46565b92915050565b600081519050620005798162000a60565b92915050565b6000602082840312156200059257600080fd5b6000620005a28482850162000523565b91505092915050565b60008060008060808587031215620005c257600080fd5b6000620005d2878288016200053a565b9450506020620005e58782880162000551565b9350506040620005f88782880162000568565b92505060606200060b878288016200050c565b91505092959194509250565b600062000625838362000694565b60208301905092915050565b6200063c8162000958565b62000648818462000970565b925062000655826200094e565b8060005b838110156200068c57815162000670878262000617565b96506200067d8362000963565b92505060018101905062000659565b505050505050565b6200069f81620009a0565b82525050565b6000620006b46025836200097b565b91507f64656e6f6d696e6174696f6e2073686f756c642062652067726561746572207460008301527f68616e20300000000000000000000000000000000000000000000000000000006020830152604082019050919050565b60006200071c6020836200097b565b91507f5f6c6566742073686f756c6420626520696e7369646520746865206669656c646000830152602082019050919050565b60006200075e6021836200097b565b91507f5f72696768742073686f756c6420626520696e7369646520746865206669656c60008301527f64000000000000000000000000000000000000000000000000000000000000006020830152604082019050919050565b6000620007c66027836200097b565b91507f5f747265654c6576656c732073686f756c64206265206772656174657220746860008301527f616e207a65726f000000000000000000000000000000000000000000000000006020830152604082019050919050565b60006200082e6022836200097b565b91507f5f747265654c6576656c732073686f756c64206265206c657373207468616e2060008301527f33320000000000000000000000000000000000000000000000000000000000006020830152604082019050919050565b60006040820190506200089e600083018462000631565b92915050565b60006020820190508181036000830152620008bf81620006a5565b9050919050565b60006020820190508181036000830152620008e1816200070d565b9050919050565b6000602082019050818103600083015262000903816200074f565b9050919050565b600060208201905081810360008301526200092581620007b7565b9050919050565b6000602082019050818103600083015262000947816200081f565b9050919050565b6000819050919050565b600060029050919050565b6000602082019050919050565b600081905092915050565b600082825260208201905092915050565b60006200099982620009be565b9050919050565b6000819050919050565b6000620009b7826200098c565b9050919050565b600073ffffffffffffffffffffffffffffffffffffffff82169050919050565b6000819050919050565b600063ffffffff82169050919050565b62000a03816200098c565b811462000a0f57600080fd5b50565b62000a1d81620009a0565b811462000a2957600080fd5b50565b62000a3781620009aa565b811462000a4357600080fd5b50565b62000a5181620009de565b811462000a5d57600080fd5b50565b62000a6b81620009e8565b811462000a7757600080fd5b50565b60805160e01c60a05160c05160601c6120de62000acb600039806105145280610af85250806107bf52806109ec528061100852806110c95250806106f95280610dc25280610e8252506120de6000f3fe60806040526004361061011f5760003560e01c8063ba70f757116100a0578063e829558811610064578063e8295588146103f7578063ec73295914610434578063ed33639f1461045f578063f178e47c1461048a578063fc7e9c6f146104c75761011f565b8063ba70f7571461030b578063c2b40ae414610336578063cd87a3b414610373578063cff74ce11461039e578063e5285dcc146103ba5761011f565b80636d9833e3116100e75780636d9833e31461021f5780638bca6d161461025c57806390eeb02b146102875780639fa12d0b146102b2578063b214faa5146102ef5761011f565b806317cc915c146101245780632b7ac3f31461016157806338bf282e1461018c578063414a37ba146101c95780634ecf518b146101f4575b600080fd5b34801561013057600080fd5b5061014b60048036038101906101469190611396565b6104f2565b6040516101589190611c2b565b60405180910390f35b34801561016d57600080fd5b50610176610512565b6040516101839190611c7c565b60405180910390f35b34801561019857600080fd5b506101b360048036038101906101ae91906113e8565b610536565b6040516101c09190611c46565b60405180910390f35b3480156101d557600080fd5b506101de6106d3565b6040516101eb9190611e17565b60405180910390f35b34801561020057600080fd5b506102096106f7565b6040516102169190611e32565b60405180910390f35b34801561022b57600080fd5b5061024660048036038101906102419190611396565b61071b565b6040516102539190611c2b565b60405180910390f35b34801561026857600080fd5b506102716107bd565b60405161027e9190611e17565b60405180910390f35b34801561029357600080fd5b5061029c6107e1565b6040516102a99190611e32565b60405180910390f35b3480156102be57600080fd5b506102d960048036038101906102d49190611328565b6107f7565b6040516102e69190611ba7565b60405180910390f35b61030960048036038101906103049190611396565b6108a8565b005b34801561031757600080fd5b50610320610951565b60405161032d9190611c46565b60405180910390f35b34801561034257600080fd5b5061035d600480360381019061035891906114b3565b61097f565b60405161036a9190611c46565b60405180910390f35b34801561037f57600080fd5b50610388610997565b6040516103959190611e32565b60405180910390f35b6103b860048036038101906103b39190611424565b61099c565b005b3480156103c657600080fd5b506103e160048036038101906103dc9190611396565b610cde565b6040516103ee9190611c2b565b60405180910390f35b34801561040357600080fd5b5061041e600480360381019061041991906114b3565b610d08565b60405161042b9190611c46565b60405180910390f35b34801561044057600080fd5b50610449610d29565b6040516104569190611e17565b60405180910390f35b34801561046b57600080fd5b50610474610d4d565b6040516104819190611c61565b60405180910390f35b34801561049657600080fd5b506104b160048036038101906104ac91906114b3565b610d71565b6040516104be9190611c46565b60405180910390f35b3480156104d357600080fd5b506104dc610d92565b6040516104e99190611e32565b60405180910390f35b60696020528060005260406000206000915054906101000a900460ff1681565b7f000000000000000000000000000000000000000000000000000000000000000081565b60007f30644e72e131a029b85045b68181585d2833e84879b9709143e1f593f00000018360001c1061059d576040517f08c379a000000000000000000000000000000000000000000000000000000000815260040161059490611d17565b60405180910390fd5b7f30644e72e131a029b85045b68181585d2833e84879b9709143e1f593f00000018260001c10610602576040517f08c379a00000000000000000000000000000000000000000000000000000000081526004016105f990611d37565b60405180910390fd5b61060a611237565b604051806040016040528085815260200184815250905060008054906101000a900473ffffffffffffffffffffffffffffffffffffffff1673ffffffffffffffffffffffffffffffffffffffff1663299e5660826040518263ffffffff1660e01b815260040161067a9190611bc9565b60206040518083038186803b15801561069257600080fd5b505afa1580156106a6573d6000803e3d6000fd5b505050506040513d601f19601f820116820180604052508101906106ca91906113bf565b91505092915050565b7f30644e72e131a029b85045b68181585d2833e84879b9709143e1f593f000000181565b7f000000000000000000000000000000000000000000000000000000000000000081565b60008060001b82141561073157600090506107b8565b6000600360009054906101000a900463ffffffff1690505b60048163ffffffff166064811061075c57fe5b015483141561076f5760019150506107b8565b60008163ffffffff16141561078357606490505b808060019003915050600360009054906101000a900463ffffffff1663ffffffff168163ffffffff1614156107495760009150505b919050565b7f000000000000000000000000000000000000000000000000000000000000000081565b600360009054906101000a900463ffffffff1681565b60608282905067ffffffffffffffff8111801561081357600080fd5b506040519080825280602002602001820160405280156108425781602001602082028036833780820191505090505b50905060005b838390508110156108a15761086e84848381811061086257fe5b90506020020135610cde565b1561089457600182828151811061088157fe5b6020026020010190151590811515815250505b8080600101915050610848565b5092915050565b600260685414156108ee576040517f08c379a00000000000000000000000000000000000000000000000000000000081526004016108e590611dd7565b60405180910390fd5b6002606881905550600061090182610da8565b905061090b611006565b817fa945e51eec50ab98c161376f0db4cf2aeba3ec92755fe2fcd388bdbbb80ff196824260405161093d929190611e4d565b60405180910390a250600160688190555050565b60006004600360009054906101000a900463ffffffff1663ffffffff166064811061097857fe5b0154905090565b6004816064811061098c57fe5b016000915090505481565b606481565b600260685414156109e2576040517f08c379a00000000000000000000000000000000000000000000000000000000081526004016109d990611dd7565b60405180910390fd5b60026068819055507f0000000000000000000000000000000000000000000000000000000000000000811115610a4d576040517f08c379a0000000000000000000000000000000000000000000000000000000008152600401610a4490611cd7565b60405180910390fd5b6069600085815260200190815260200160002060009054906101000a900460ff1615610aae576040517f08c379a0000000000000000000000000000000000000000000000000000000008152600401610aa590611d77565b60405180910390fd5b610ab78561071b565b610af6576040517f08c379a0000000000000000000000000000000000000000000000000000000008152600401610aed90611cb7565b60405180910390fd5b7f000000000000000000000000000000000000000000000000000000000000000073ffffffffffffffffffffffffffffffffffffffff166334baeab987600001886040018960c0016040518060a001604052808b60001c81526020018a60001c81526020018973ffffffffffffffffffffffffffffffffffffffff1681526020018873ffffffffffffffffffffffffffffffffffffffff168152602001878152506040518563ffffffff1660e01b8152600401610bb69493929190611be4565b60206040518083038186803b158015610bce57600080fd5b505afa158015610be2573d6000803e3d6000fd5b505050506040513d601f19601f82011682018060405250810190610c06919061136d565b610c45576040517f08c379a0000000000000000000000000000000000000000000000000000000008152600401610c3c90611d57565b60405180910390fd5b60016069600086815260200190815260200160002060006101000a81548160ff021916908315150217905550610c7c83838361106a565b8173ffffffffffffffffffffffffffffffffffffffff167fe9e508bad6d4c3227e881ca19068f099da81b5164dd6d62b2eaf1e8bc6c34931848684604051610cc693929190611b70565b60405180910390a26001606881905550505050505050565b60006069600083815260200190815260200160002060009054906101000a900460ff169050919050565b60028181548110610d1557fe5b906000526020600020016000915090505481565b7f2fe54c60d3acabf3343a35b6eba15db4821b340f76e741e2249685ed4899af6c81565b60008054906101000a900473ffffffffffffffffffffffffffffffffffffffff1681565b60018181548110610d7e57fe5b906000526020600020016000915090505481565b600360049054906101000a900463ffffffff1681565b600080600360049054906101000a900463ffffffff1690507f000000000000000000000000000000000000000000000000000000000000000063ffffffff16600263ffffffff160a63ffffffff168163ffffffff161415610e3e576040517f08c379a0000000000000000000000000000000000000000000000000000000008152600401610e3590611c97565b60405180910390fd5b6001600360048282829054906101000a900463ffffffff160192506101000a81548163ffffffff021916908363ffffffff160217905550600083905060008060005b7f000000000000000000000000000000000000000000000000000000000000000063ffffffff168163ffffffff161015610f6d57600060028663ffffffff1681610ec657fe5b0663ffffffff161415610f1d5783925060028163ffffffff1681548110610ee957fe5b906000526020600020015491508360018263ffffffff1681548110610f0a57fe5b9060005260206000200181905550610f41565b60018163ffffffff1681548110610f3057fe5b906000526020600020015492508391505b610f4b8383610536565b935060028563ffffffff1681610f5d57fe5b0494508080600101915050610e80565b50606463ffffffff166001600360009054906101000a900463ffffffff160163ffffffff1681610f9957fe5b06600360006101000a81548163ffffffff021916908363ffffffff160217905550826004600360009054906101000a900463ffffffff1663ffffffff1660648110610fe057fe5b01819055506001600360049054906101000a900463ffffffff1603945050505050919050565b7f00000000000000000000000000000000000000000000000000000000000000003414611068576040517f08c379a000000000000000000000000000000000000000000000000000000000815260040161105f90611cf7565b60405180910390fd5b565b600034146110ad576040517f08c379a00000000000000000000000000000000000000000000000000000000081526004016110a490611df7565b60405180910390fd5b60008373ffffffffffffffffffffffffffffffffffffffff16827f0000000000000000000000000000000000000000000000000000000000000000036040516110f590611b5b565b60006040518083038185875af1925050503d8060008114611132576040519150601f19603f3d011682016040523d82523d6000602084013e611137565b606091505b505090508061117b576040517f08c379a000000000000000000000000000000000000000000000000000000000815260040161117290611d97565b60405180910390fd5b6000821115611231578273ffffffffffffffffffffffffffffffffffffffff16826040516111a890611b5b565b60006040518083038185875af1925050503d80600081146111e5576040519150601f19603f3d011682016040523d82523d6000602084013e6111ea565b606091505b50508091505080611230576040517f08c379a000000000000000000000000000000000000000000000000000000000815260040161122790611db7565b60405180910390fd5b5b50505050565b6040518060400160405280600290602082028036833780820191505090505090565b6000813590506112688161204c565b92915050565b60008083601f84011261128057600080fd5b8235905067ffffffffffffffff81111561129957600080fd5b6020830191508360208202830111156112b157600080fd5b9250929050565b6000815190506112c781612063565b92915050565b6000813590506112dc8161207a565b92915050565b6000815190506112f18161207a565b92915050565b6000610100828403121561130a57600080fd5b81905092915050565b60008135905061132281612091565b92915050565b6000806020838503121561133b57600080fd5b600083013567ffffffffffffffff81111561135557600080fd5b6113618582860161126e565b92509250509250929050565b60006020828403121561137f57600080fd5b600061138d848285016112b8565b91505092915050565b6000602082840312156113a857600080fd5b60006113b6848285016112cd565b91505092915050565b6000602082840312156113d157600080fd5b60006113df848285016112e2565b91505092915050565b600080604083850312156113fb57600080fd5b6000611409858286016112cd565b925050602061141a858286016112cd565b9150509250929050565b6000806000806000806101a0878903121561143e57600080fd5b600061144c89828a016112f7565b96505061010061145e89828a016112cd565b95505061012061147089828a016112cd565b94505061014061148289828a01611259565b93505061016061149489828a01611259565b9250506101806114a689828a01611313565b9150509295509295509295565b6000602082840312156114c557600080fd5b60006114d384828501611313565b91505092915050565b60006114e8838361165f565b60408301905092915050565b600061150083836116d6565b60208301905092915050565b600061151883836116f4565b60208301905092915050565b60006115308383611b2e565b60208301905092915050565b61154581611fbf565b82525050565b61155481611ea4565b61155e8184611f04565b925061156982611e76565b8060005b838110156115a25761157f8284611f52565b61158987826114dc565b965061159483611ed0565b92505060018101905061156d565b505050505050565b60006115b582611eaf565b6115bf8185611f0f565b93506115ca83611e80565b8060005b838110156115fb5781516115e288826114f4565b97506115ed83611edd565b9250506001810190506115ce565b5085935050505092915050565b61161181611eba565b61161b8184611f20565b925061162682611e90565b8060005b8381101561165757815161163e878261150c565b965061164983611eea565b92505060018101905061162a565b505050505050565b61166b6040838361203d565b5050565b61167b6040838361203d565b5050565b61168881611ec5565b6116928184611f2b565b925061169d82611e9a565b8060005b838110156116ce5781516116b58782611524565b96506116c083611ef7565b9250506001810190506116a1565b505050505050565b6116df81611f6f565b82525050565b6116ee81611f6f565b82525050565b6116fd81611f7b565b82525050565b61170c81611f7b565b82525050565b61171b81611fd1565b82525050565b61172a81611ff5565b82525050565b600061173d602f83611f41565b91507f4d65726b6c6520747265652069732066756c6c2e204e6f206d6f7265206c656160008301527f66732063616e20626520616464656400000000000000000000000000000000006020830152604082019050919050565b60006117a3601c83611f41565b91507f43616e6e6f742066696e6420796f7572206d65726b6c6520726f6f74000000006000830152602082019050919050565b60006117e3601a83611f41565b91507f4665652065786365656473207472616e736665722076616c75650000000000006000830152602082019050919050565b6000611823603883611f41565b91507f506c656173652073656e6420606d697844656e6f6d696e6174696f6e6020455460008301527f4820616c6f6e672077697468207472616e73616374696f6e00000000000000006020830152604082019050919050565b6000611889602083611f41565b91507f5f6c6566742073686f756c6420626520696e7369646520746865206669656c646000830152602082019050919050565b60006118c9602183611f41565b91507f5f72696768742073686f756c6420626520696e7369646520746865206669656c60008301527f64000000000000000000000000000000000000000000000000000000000000006020830152604082019050919050565b600061192f601683611f41565b91507f496e76616c69642077697468647261772070726f6f66000000000000000000006000830152602082019050919050565b600061196f601f83611f41565b91507f546865206e6f746520686173206265656e20616c7265616479207370656e74006000830152602082019050919050565b60006119af602583611f41565b91507f7061796d656e7420746f205f726563697069656e7420646964206e6f7420676f60008301527f20746872750000000000000000000000000000000000000000000000000000006020830152604082019050919050565b6000611a15600083611f36565b9150600082019050919050565b6000611a2f602383611f41565b91507f7061796d656e7420746f205f72656c6179657220646964206e6f7420676f207460008301527f68727500000000000000000000000000000000000000000000000000000000006020830152604082019050919050565b6000611a95601f83611f41565b91507f5265656e7472616e637947756172643a207265656e7472616e742063616c6c006000830152602082019050919050565b6000611ad5603583611f41565b91507f4d6573736167652076616c756520697320737570706f73656420746f2062652060008301527f7a65726f20666f722045544820696e7374616e636500000000000000000000006020830152604082019050919050565b611b3781611fa5565b82525050565b611b4681611fa5565b82525050565b611b5581611faf565b82525050565b6000611b6682611a08565b9150819050919050565b6000606082019050611b85600083018661153c565b611b926020830185611703565b611b9f6040830184611b3d565b949350505050565b60006020820190508181036000830152611bc181846115aa565b905092915050565b6000604082019050611bde6000830184611608565b92915050565b60006101a082019050611bfa600083018761166f565b611c07604083018661154b565b611c1460c083018561166f565b611c2261010083018461167f565b95945050505050565b6000602082019050611c4060008301846116e5565b92915050565b6000602082019050611c5b6000830184611703565b92915050565b6000602082019050611c766000830184611712565b92915050565b6000602082019050611c916000830184611721565b92915050565b60006020820190508181036000830152611cb081611730565b9050919050565b60006020820190508181036000830152611cd081611796565b9050919050565b60006020820190508181036000830152611cf0816117d6565b9050919050565b60006020820190508181036000830152611d1081611816565b9050919050565b60006020820190508181036000830152611d308161187c565b9050919050565b60006020820190508181036000830152611d50816118bc565b9050919050565b60006020820190508181036000830152611d7081611922565b9050919050565b60006020820190508181036000830152611d9081611962565b9050919050565b60006020820190508181036000830152611db0816119a2565b9050919050565b60006020820190508181036000830152611dd081611a22565b9050919050565b60006020820190508181036000830152611df081611a88565b9050919050565b60006020820190508181036000830152611e1081611ac8565b9050919050565b6000602082019050611e2c6000830184611b3d565b92915050565b6000602082019050611e476000830184611b4c565b92915050565b6000604082019050611e626000830185611b4c565b611e6f6020830184611b3d565b9392505050565b6000819050919050565b6000819050602082019050919050565b6000819050919050565b6000819050919050565b600060029050919050565b600081519050919050565b600060029050919050565b600060059050919050565b6000604082019050919050565b6000602082019050919050565b6000602082019050919050565b6000602082019050919050565b600081905092915050565b600082825260208201905092915050565b600081905092915050565b600081905092915050565b600081905092915050565b600082825260208201905092915050565b600082905092915050565b6000611f6882611f85565b9050919050565b60008115159050919050565b6000819050919050565b600073ffffffffffffffffffffffffffffffffffffffff82169050919050565b6000819050919050565b600063ffffffff82169050919050565b6000611fca82612019565b9050919050565b6000611fdc82611fe3565b9050919050565b6000611fee82611f85565b9050919050565b600061200082612007565b9050919050565b600061201282611f85565b9050919050565b60006120248261202b565b9050919050565b600061203682611f85565b9050919050565b82818337600083830152505050565b61205581611f5d565b811461206057600080fd5b50565b61206c81611f6f565b811461207757600080fd5b50565b61208381611f7b565b811461208e57600080fd5b50565b61209a81611fa5565b81146120a557600080fd5b5056fea26469706673582212200d57f9caadd95439904c6bdb86806fddde869ffdfe943f907275f22359d5a33364736f6c63430007030033",
  "linkReferences": {},
  "deployedLinkReferences": {}
}